{
  "contractName": "PrintMessage",
  "abi": [
    {
      "inputs": [
        {
          "internalType": "string",
          "name": "_message",
          "type": "string"
        }
      ],
      "stateMutability": "nonpayable",
      "type": "constructor"
    },
    {
      "inputs": [],
      "name": "message",
      "outputs": [
        {
          "internalType": "string",
          "name": "",
          "type": "string"
        }
      ],
      "stateMutability": "view",
      "type": "function",
      "constant": true
    },
    {
      "inputs": [
        {
          "internalType": "string",
          "name": "_message",
          "type": "string"
        }
      ],
      "name": "setMessage",
      "outputs": [],
      "stateMutability": "nonpayable",
      "type": "function"
    },
    {
      "inputs": [],
      "name": "getMessage",
      "outputs": [
        {
          "internalType": "string",
          "name": "",
          "type": "string"
        }
      ],
      "stateMutability": "view",
      "type": "function",
      "constant": true
    },
    {
      "inputs": [
        {
          "internalType": "address",
          "name": "addr",
          "type": "address"
        }
      ],
      "name": "getLog",
      "outputs": [
        {
          "internalType": "string[]",
          "name": "",
          "type": "string[]"
        }
      ],
      "stateMutability": "view",
      "type": "function",
      "constant": true
    }
  ],
  "bytecode": "0x60806040523480156200001157600080fd5b50604051620011423803806200114283398181016040528101906200003791906200054a565b80600090805190602001906200004f929190620000ee565b5060016000908060018154018082558091505060019003906000526020600020016000909190919091509080546200008790620005ca565b620000949291906200017f565b506001600260003373ffffffffffffffffffffffffffffffffffffffff1673ffffffffffffffffffffffffffffffffffffffff168152602001908152602001600020908054620000e692919062000217565b505062000600565b828054620000fc90620005ca565b90600052602060002090601f0160209004810192826200012057600085556200016c565b82601f106200013b57805160ff19168380011785556200016c565b828001600101855582156200016c579182015b828111156200016b5782518255916020019190600101906200014e565b5b5090506200017b919062000288565b5090565b8280546200018d90620005ca565b90600052602060002090601f016020900481019282620001b1576000855562000204565b82601f10620001c4578054855562000204565b828001600101855582156200020457600052602060002091601f016020900482015b8281111562000203578254825591600101919060010190620001e6565b5b50905062000213919062000288565b5090565b828054828255906000526020600020908101928215620002755760005260206000209182015b82811115620002745782829080546200025690620005ca565b62000263929190620002a7565b50916001019190600101906200023d565b5b5090506200028491906200033f565b5090565b5b80821115620002a357600081600090555060010162000289565b5090565b828054620002b590620005ca565b90600052602060002090601f016020900481019282620002d957600085556200032c565b82601f10620002ec57805485556200032c565b828001600101855582156200032c57600052602060002091601f016020900482015b828111156200032b5782548255916001019190600101906200030e565b5b5090506200033b919062000288565b5090565b5b8082111562000363576000818162000359919062000367565b5060010162000340565b5090565b5080546200037590620005ca565b6000825580601f10620003895750620003aa565b601f016020900490600052602060002090810190620003a9919062000288565b5b50565b6000604051905090565b600080fd5b600080fd5b600080fd5b600080fd5b6000601f19601f8301169050919050565b7f4e487b7100000000000000000000000000000000000000000000000000000000600052604160045260246000fd5b6200041682620003cb565b810181811067ffffffffffffffff82111715620004385762000437620003dc565b5b80604052505050565b60006200044d620003ad565b90506200045b82826200040b565b919050565b600067ffffffffffffffff8211156200047e576200047d620003dc565b5b6200048982620003cb565b9050602081019050919050565b60005b83811015620004b657808201518184015260208101905062000499565b83811115620004c6576000848401525b50505050565b6000620004e3620004dd8462000460565b62000441565b905082815260208101848484011115620005025762000501620003c6565b5b6200050f84828562000496565b509392505050565b600082601f8301126200052f576200052e620003c1565b5b815162000541848260208601620004cc565b91505092915050565b600060208284031215620005635762000562620003b7565b5b600082015167ffffffffffffffff811115620005845762000583620003bc565b5b620005928482850162000517565b91505092915050565b7f4e487b7100000000000000000000000000000000000000000000000000000000600052602260045260246000fd5b60006002820490506001821680620005e357607f821691505b60208210811415620005fa57620005f96200059b565b5b50919050565b610b3280620006106000396000f3fe608060405234801561001057600080fd5b506004361061004c5760003560e01c8063368b877214610051578063547b5c0c1461006d578063ce6d41de1461009d578063e21f37ce146100bb575b600080fd5b61006b600480360381019061006691906107ef565b6100d9565b005b61008760048036038101906100829190610896565b6101d4565b6040516100949190610a0d565b60405180910390f35b6100a56102ec565b6040516100b29190610a79565b60405180910390f35b6100c361037e565b6040516100d09190610a79565b60405180910390f35b80600090805190602001906100ef92919061040c565b50600260003373ffffffffffffffffffffffffffffffffffffffff1673ffffffffffffffffffffffffffffffffffffffff168152602001908152602001600020600190805461013f929190610492565b50600160009080600181540180825580915050600190039060005260206000200160009091909190915090805461017590610aca565b6101809291906104fa565b506001600260003373ffffffffffffffffffffffffffffffffffffffff1673ffffffffffffffffffffffffffffffffffffffff1681526020019081526020016000209080546101d0929190610492565b5050565b6060600260008373ffffffffffffffffffffffffffffffffffffffff1673ffffffffffffffffffffffffffffffffffffffff168152602001908152602001600020805480602002602001604051908101604052809291908181526020016000905b828210156102e157838290600052602060002001805461025490610aca565b80601f016020809104026020016040519081016040528092919081815260200182805461028090610aca565b80156102cd5780601f106102a2576101008083540402835291602001916102cd565b820191906000526020600020905b8154815290600101906020018083116102b057829003601f168201915b505050505081526020019060010190610235565b505050509050919050565b6060600080546102fb90610aca565b80601f016020809104026020016040519081016040528092919081815260200182805461032790610aca565b80156103745780601f1061034957610100808354040283529160200191610374565b820191906000526020600020905b81548152906001019060200180831161035757829003601f168201915b5050505050905090565b6000805461038b90610aca565b80601f01602080910402602001604051908101604052809291908181526020018280546103b790610aca565b80156104045780601f106103d957610100808354040283529160200191610404565b820191906000526020600020905b8154815290600101906020018083116103e757829003601f168201915b505050505081565b82805461041890610aca565b90600052602060002090601f01602090048101928261043a5760008555610481565b82601f1061045357805160ff1916838001178555610481565b82800160010185558215610481579182015b82811115610480578251825591602001919060010190610465565b5b50905061048e9190610587565b5090565b8280548282559060005260206000209081019282156104e95760005260206000209182015b828111156104e85782829080546104cd90610aca565b6104d89291906105a4565b50916001019190600101906104b7565b5b5090506104f69190610631565b5090565b82805461050690610aca565b90600052602060002090601f0160209004810192826105285760008555610576565b82601f106105395780548555610576565b8280016001018555821561057657600052602060002091601f016020900482015b8281111561057557825482559160010191906001019061055a565b5b5090506105839190610587565b5090565b5b808211156105a0576000816000905550600101610588565b5090565b8280546105b090610aca565b90600052602060002090601f0160209004810192826105d25760008555610620565b82601f106105e35780548555610620565b8280016001018555821561062057600052602060002091601f016020900482015b8281111561061f578254825591600101919060010190610604565b5b50905061062d9190610587565b5090565b5b8082111561065157600081816106489190610655565b50600101610632565b5090565b50805461066190610aca565b6000825580601f106106735750610692565b601f0160209004906000526020600020908101906106919190610587565b5b50565b6000604051905090565b600080fd5b600080fd5b600080fd5b600080fd5b6000601f19601f8301169050919050565b7f4e487b7100000000000000000000000000000000000000000000000000000000600052604160045260246000fd5b6106fc826106b3565b810181811067ffffffffffffffff8211171561071b5761071a6106c4565b5b80604052505050565b600061072e610695565b905061073a82826106f3565b919050565b600067ffffffffffffffff82111561075a576107596106c4565b5b610763826106b3565b9050602081019050919050565b82818337600083830152505050565b600061079261078d8461073f565b610724565b9050828152602081018484840111156107ae576107ad6106ae565b5b6107b9848285610770565b509392505050565b600082601f8301126107d6576107d56106a9565b5b81356107e684826020860161077f565b91505092915050565b6000602082840312156108055761080461069f565b5b600082013567ffffffffffffffff811115610823576108226106a4565b5b61082f848285016107c1565b91505092915050565b600073ffffffffffffffffffffffffffffffffffffffff82169050919050565b600061086382610838565b9050919050565b61087381610858565b811461087e57600080fd5b50565b6000813590506108908161086a565b92915050565b6000602082840312156108ac576108ab61069f565b5b60006108ba84828501610881565b91505092915050565b600081519050919050565b600082825260208201905092915050565b6000819050602082019050919050565b600081519050919050565b600082825260208201905092915050565b60005b8381101561092957808201518184015260208101905061090e565b83811115610938576000848401525b50505050565b6000610949826108ef565b61095381856108fa565b935061096381856020860161090b565b61096c816106b3565b840191505092915050565b6000610983838361093e565b905092915050565b6000602082019050919050565b60006109a3826108c3565b6109ad81856108ce565b9350836020820285016109bf856108df565b8060005b858110156109fb57848403895281516109dc8582610977565b94506109e78361098b565b925060208a019950506001810190506109c3565b50829750879550505050505092915050565b60006020820190508181036000830152610a278184610998565b905092915050565b600082825260208201905092915050565b6000610a4b826108ef565b610a558185610a2f565b9350610a6581856020860161090b565b610a6e816106b3565b840191505092915050565b60006020820190508181036000830152610a938184610a40565b905092915050565b7f4e487b7100000000000000000000000000000000000000000000000000000000600052602260045260246000fd5b60006002820490506001821680610ae257607f821691505b60208210811415610af657610af5610a9b565b5b5091905056fea2646970667358221220dca2648737a9183791080c47b06bcc1cf20f945a7a04bde817e3fa916d8fd4b164736f6c634300080b0033",
  "immutableReferences": {},
  "source": "// SPDX-License-Identifier: MIT\r\npragma solidity 0.8.11;\r\n\r\ncontract PrintMessage {\r\n    string public message;\r\n    string[] messages;\r\n    mapping (address => string[]) log;\r\n\r\n    constructor(string memory _message){\r\n        message = _message;\r\n        messages.push(message);\r\n        log[msg.sender] = messages;\r\n    }\r\n\r\n    function setMessage(string memory _message) external{\r\n        message = _message;\r\n        messages = log[msg.sender];\r\n        messages.push(message);\r\n        log[msg.sender] = messages;\r\n    }\r\n\r\n    function getMessage() external view returns(string memory){\r\n        return message;\r\n    }\r\n\r\n    function getLog(address addr) external view returns(string[] memory) {\r\n        return log[addr];\r\n    }\r\n}",
  "sourcePath": "E:\\Blockchain\\Truffle\\Projects\\PrintMessage\\contracts\\PrintMessage.sol",
  "compiler": {
    "name": "solc",
    "version": "0.8.11+commit.d7f03943.Emscripten.clang"
  },
  "schemaVersion": "3.4.4",
  "updatedAt": "2022-02-09T04:30:23.173Z",
  "networkType": "ethereum",
  "devdoc": {
    "kind": "dev",
    "methods": {},
    "version": 1
  },
  "userdoc": {
    "kind": "user",
    "methods": {},
    "version": 1
  }
}